{
  "_format": "hh-sol-artifact-1",
  "contractName": "AuditAI",
  "sourceName": "contracts/AuditAI.sol",
  "abi": [
    {
      "inputs": [],
      "stateMutability": "nonpayable",
      "type": "constructor"
    },
    {
      "anonymous": false,
      "inputs": [
        {
          "indexed": true,
          "internalType": "address",
          "name": "owner",
          "type": "address"
        },
        {
          "indexed": true,
          "internalType": "address",
          "name": "spender",
          "type": "address"
        },
        {
          "indexed": false,
          "internalType": "uint256",
          "name": "value",
          "type": "uint256"
        }
      ],
      "name": "Approval",
      "type": "event"
    },
    {
      "anonymous": false,
      "inputs": [
        {
          "indexed": true,
          "internalType": "address",
          "name": "auditor",
          "type": "address"
        },
        {
          "indexed": false,
          "internalType": "string",
          "name": "contractCode",
          "type": "string"
        },
        {
          "indexed": false,
          "internalType": "string",
          "name": "auditReport",
          "type": "string"
        }
      ],
      "name": "SmartContractAudited",
      "type": "event"
    },
    {
      "anonymous": false,
      "inputs": [
        {
          "indexed": true,
          "internalType": "address",
          "name": "from",
          "type": "address"
        },
        {
          "indexed": true,
          "internalType": "address",
          "name": "to",
          "type": "address"
        },
        {
          "indexed": false,
          "internalType": "uint256",
          "name": "value",
          "type": "uint256"
        }
      ],
      "name": "Transfer",
      "type": "event"
    },
    {
      "inputs": [
        {
          "internalType": "address",
          "name": "",
          "type": "address"
        },
        {
          "internalType": "address",
          "name": "",
          "type": "address"
        }
      ],
      "name": "allowance",
      "outputs": [
        {
          "internalType": "uint256",
          "name": "",
          "type": "uint256"
        }
      ],
      "stateMutability": "view",
      "type": "function"
    },
    {
      "inputs": [
        {
          "internalType": "address",
          "name": "_spender",
          "type": "address"
        },
        {
          "internalType": "uint256",
          "name": "_value",
          "type": "uint256"
        }
      ],
      "name": "approve",
      "outputs": [
        {
          "internalType": "bool",
          "name": "success",
          "type": "bool"
        }
      ],
      "stateMutability": "nonpayable",
      "type": "function"
    },
    {
      "inputs": [
        {
          "internalType": "string",
          "name": "contractCode",
          "type": "string"
        },
        {
          "internalType": "string",
          "name": "auditReport",
          "type": "string"
        }
      ],
      "name": "auditSmartContract",
      "outputs": [],
      "stateMutability": "nonpayable",
      "type": "function"
    },
    {
      "inputs": [
        {
          "internalType": "address",
          "name": "",
          "type": "address"
        }
      ],
      "name": "balanceOf",
      "outputs": [
        {
          "internalType": "uint256",
          "name": "",
          "type": "uint256"
        }
      ],
      "stateMutability": "view",
      "type": "function"
    },
    {
      "inputs": [],
      "name": "decimals",
      "outputs": [
        {
          "internalType": "uint8",
          "name": "",
          "type": "uint8"
        }
      ],
      "stateMutability": "view",
      "type": "function"
    },
    {
      "inputs": [],
      "name": "name",
      "outputs": [
        {
          "internalType": "string",
          "name": "",
          "type": "string"
        }
      ],
      "stateMutability": "view",
      "type": "function"
    },
    {
      "inputs": [],
      "name": "symbol",
      "outputs": [
        {
          "internalType": "string",
          "name": "",
          "type": "string"
        }
      ],
      "stateMutability": "view",
      "type": "function"
    },
    {
      "inputs": [],
      "name": "totalSupply",
      "outputs": [
        {
          "internalType": "uint256",
          "name": "",
          "type": "uint256"
        }
      ],
      "stateMutability": "view",
      "type": "function"
    },
    {
      "inputs": [
        {
          "internalType": "address",
          "name": "_to",
          "type": "address"
        },
        {
          "internalType": "uint256",
          "name": "_value",
          "type": "uint256"
        }
      ],
      "name": "transfer",
      "outputs": [
        {
          "internalType": "bool",
          "name": "success",
          "type": "bool"
        }
      ],
      "stateMutability": "nonpayable",
      "type": "function"
    },
    {
      "inputs": [
        {
          "internalType": "address",
          "name": "_from",
          "type": "address"
        },
        {
          "internalType": "address",
          "name": "_to",
          "type": "address"
        },
        {
          "internalType": "uint256",
          "name": "_value",
          "type": "uint256"
        }
      ],
      "name": "transferFrom",
      "outputs": [
        {
          "internalType": "bool",
          "name": "success",
          "type": "bool"
        }
      ],
      "stateMutability": "nonpayable",
      "type": "function"
    }
  ],
  "bytecode": "0x60806040526040518060400160405280600d81526020017f4175646974414920546f6b656e00000000000000000000000000000000000000815250600090816200004a9190620003b6565b506040518060400160405280600381526020017f414154000000000000000000000000000000000000000000000000000000000081525060019081620000919190620003b6565b506012600260006101000a81548160ff021916908360ff160217905550600260009054906101000a900460ff1660ff16600a620000cf919062000620565b620f4240620000df919062000671565b600355348015620000ef57600080fd5b50600354600460003373ffffffffffffffffffffffffffffffffffffffff1673ffffffffffffffffffffffffffffffffffffffff16815260200190815260200160002081905550620006bc565b600081519050919050565b7f4e487b7100000000000000000000000000000000000000000000000000000000600052604160045260246000fd5b7f4e487b7100000000000000000000000000000000000000000000000000000000600052602260045260246000fd5b60006002820490506001821680620001be57607f821691505b602082108103620001d457620001d362000176565b5b50919050565b60008190508160005260206000209050919050565b60006020601f8301049050919050565b600082821b905092915050565b6000600883026200023e7fffffffffffffffffffffffffffffffffffffffffffffffffffffffffffffffff82620001ff565b6200024a8683620001ff565b95508019841693508086168417925050509392505050565b6000819050919050565b6000819050919050565b600062000297620002916200028b8462000262565b6200026c565b62000262565b9050919050565b6000819050919050565b620002b38362000276565b620002cb620002c2826200029e565b8484546200020c565b825550505050565b600090565b620002e2620002d3565b620002ef818484620002a8565b505050565b5b8181101562000317576200030b600082620002d8565b600181019050620002f5565b5050565b601f82111562000366576200033081620001da565b6200033b84620001ef565b810160208510156200034b578190505b620003636200035a85620001ef565b830182620002f4565b50505b505050565b600082821c905092915050565b60006200038b600019846008026200036b565b1980831691505092915050565b6000620003a6838362000378565b9150826002028217905092915050565b620003c1826200013c565b67ffffffffffffffff811115620003dd57620003dc62000147565b5b620003e98254620001a5565b620003f68282856200031b565b600060209050601f8311600181146200042e576000841562000419578287015190505b62000425858262000398565b86555062000495565b601f1984166200043e86620001da565b60005b82811015620004685784890151825560018201915060208501945060208101905062000441565b8683101562000488578489015162000484601f89168262000378565b8355505b6001600288020188555050505b505050505050565b7f4e487b7100000000000000000000000000000000000000000000000000000000600052601160045260246000fd5b60008160011c9050919050565b6000808291508390505b60018511156200052b578086048111156200050357620005026200049d565b5b6001851615620005135780820291505b80810290506200052385620004cc565b9450620004e3565b94509492505050565b60008262000546576001905062000619565b8162000556576000905062000619565b81600181146200056f57600281146200057a57620005b0565b600191505062000619565b60ff8411156200058f576200058e6200049d565b5b8360020a915084821115620005a957620005a86200049d565b5b5062000619565b5060208310610133831016604e8410600b8410161715620005ea5782820a905083811115620005e457620005e36200049d565b5b62000619565b620005f98484846001620004d9565b925090508184048111156200061357620006126200049d565b5b81810290505b9392505050565b60006200062d8262000262565b91506200063a8362000262565b9250620006697fffffffffffffffffffffffffffffffffffffffffffffffffffffffffffffffff848462000534565b905092915050565b60006200067e8262000262565b91506200068b8362000262565b92508282026200069b8162000262565b91508282048414831517620006b557620006b46200049d565b5b5092915050565b610fbf80620006cc6000396000f3fe608060405234801561001057600080fd5b506004361061009e5760003560e01c8063313ce56711610066578063313ce5671461015b57806370a082311461017957806395d89b41146101a9578063a9059cbb146101c7578063dd62ed3e146101f75761009e565b806306fdde03146100a3578063095ea7b3146100c157806318160ddd146100f15780631cb06dea1461010f57806323b872dd1461012b575b600080fd5b6100ab610227565b6040516100b89190610a06565b60405180910390f35b6100db60048036038101906100d69190610ac6565b6102b5565b6040516100e89190610b21565b60405180910390f35b6100f96103a7565b6040516101069190610b4b565b60405180910390f35b61012960048036038101906101249190610bcb565b6103ad565b005b61014560048036038101906101409190610c4c565b610407565b6040516101529190610b21565b60405180910390f35b6101636106f9565b6040516101709190610cbb565b60405180910390f35b610193600480360381019061018e9190610cd6565b61070c565b6040516101a09190610b4b565b60405180910390f35b6101b1610724565b6040516101be9190610a06565b60405180910390f35b6101e160048036038101906101dc9190610ac6565b6107b2565b6040516101ee9190610b21565b60405180910390f35b610211600480360381019061020c9190610d03565b610951565b60405161021e9190610b4b565b60405180910390f35b6000805461023490610d72565b80601f016020809104026020016040519081016040528092919081815260200182805461026090610d72565b80156102ad5780601f10610282576101008083540402835291602001916102ad565b820191906000526020600020905b81548152906001019060200180831161029057829003601f168201915b505050505081565b600081600560003373ffffffffffffffffffffffffffffffffffffffff1673ffffffffffffffffffffffffffffffffffffffff16815260200190815260200160002060008573ffffffffffffffffffffffffffffffffffffffff1673ffffffffffffffffffffffffffffffffffffffff168152602001908152602001600020819055508273ffffffffffffffffffffffffffffffffffffffff163373ffffffffffffffffffffffffffffffffffffffff167f8c5be1e5ebec7d5bd14f71427d1e84f3dd0314c0f7b2291e5b200ac8c7c3b925846040516103959190610b4b565b60405180910390a36001905092915050565b60035481565b3373ffffffffffffffffffffffffffffffffffffffff167f01b792e1a60d025c5f4e98c54d80243abf45379c2e5ec920fe5b58791422cdbc858585856040516103f99493929190610ddf565b60405180910390a250505050565b6000600460008573ffffffffffffffffffffffffffffffffffffffff1673ffffffffffffffffffffffffffffffffffffffff1681526020019081526020016000205482111561048b576040517f08c379a000000000000000000000000000000000000000000000000000000000815260040161048290610e66565b60405180910390fd5b600560008573ffffffffffffffffffffffffffffffffffffffff1673ffffffffffffffffffffffffffffffffffffffff16815260200190815260200160002060003373ffffffffffffffffffffffffffffffffffffffff1673ffffffffffffffffffffffffffffffffffffffff1681526020019081526020016000205482111561054a576040517f08c379a000000000000000000000000000000000000000000000000000000000815260040161054190610ed2565b60405180910390fd5b81600460008673ffffffffffffffffffffffffffffffffffffffff1673ffffffffffffffffffffffffffffffffffffffff16815260200190815260200160002060008282546105999190610f21565b9250508190555081600460008573ffffffffffffffffffffffffffffffffffffffff1673ffffffffffffffffffffffffffffffffffffffff16815260200190815260200160002060008282546105ef9190610f55565b9250508190555081600560008673ffffffffffffffffffffffffffffffffffffffff1673ffffffffffffffffffffffffffffffffffffffff16815260200190815260200160002060003373ffffffffffffffffffffffffffffffffffffffff1673ffffffffffffffffffffffffffffffffffffffff16815260200190815260200160002060008282546106829190610f21565b925050819055508273ffffffffffffffffffffffffffffffffffffffff168473ffffffffffffffffffffffffffffffffffffffff167fddf252ad1be2c89b69c2b068fc378daa952ba7f163c4a11628f55a4df523b3ef846040516106e69190610b4b565b60405180910390a3600190509392505050565b600260009054906101000a900460ff1681565b60046020528060005260406000206000915090505481565b6001805461073190610d72565b80601f016020809104026020016040519081016040528092919081815260200182805461075d90610d72565b80156107aa5780601f1061077f576101008083540402835291602001916107aa565b820191906000526020600020905b81548152906001019060200180831161078d57829003601f168201915b505050505081565b600081600460003373ffffffffffffffffffffffffffffffffffffffff1673ffffffffffffffffffffffffffffffffffffffff168152602001908152602001600020541015610836576040517f08c379a000000000000000000000000000000000000000000000000000000000815260040161082d90610e66565b60405180910390fd5b81600460003373ffffffffffffffffffffffffffffffffffffffff1673ffffffffffffffffffffffffffffffffffffffff16815260200190815260200160002060008282546108859190610f21565b9250508190555081600460008573ffffffffffffffffffffffffffffffffffffffff1673ffffffffffffffffffffffffffffffffffffffff16815260200190815260200160002060008282546108db9190610f55565b925050819055508273ffffffffffffffffffffffffffffffffffffffff163373ffffffffffffffffffffffffffffffffffffffff167fddf252ad1be2c89b69c2b068fc378daa952ba7f163c4a11628f55a4df523b3ef8460405161093f9190610b4b565b60405180910390a36001905092915050565b6005602052816000526040600020602052806000526040600020600091509150505481565b600081519050919050565b600082825260208201905092915050565b60005b838110156109b0578082015181840152602081019050610995565b60008484015250505050565b6000601f19601f8301169050919050565b60006109d882610976565b6109e28185610981565b93506109f2818560208601610992565b6109fb816109bc565b840191505092915050565b60006020820190508181036000830152610a2081846109cd565b905092915050565b600080fd5b600080fd5b600073ffffffffffffffffffffffffffffffffffffffff82169050919050565b6000610a5d82610a32565b9050919050565b610a6d81610a52565b8114610a7857600080fd5b50565b600081359050610a8a81610a64565b92915050565b6000819050919050565b610aa381610a90565b8114610aae57600080fd5b50565b600081359050610ac081610a9a565b92915050565b60008060408385031215610add57610adc610a28565b5b6000610aeb85828601610a7b565b9250506020610afc85828601610ab1565b9150509250929050565b60008115159050919050565b610b1b81610b06565b82525050565b6000602082019050610b366000830184610b12565b92915050565b610b4581610a90565b82525050565b6000602082019050610b606000830184610b3c565b92915050565b600080fd5b600080fd5b600080fd5b60008083601f840112610b8b57610b8a610b66565b5b8235905067ffffffffffffffff811115610ba857610ba7610b6b565b5b602083019150836001820283011115610bc457610bc3610b70565b5b9250929050565b60008060008060408587031215610be557610be4610a28565b5b600085013567ffffffffffffffff811115610c0357610c02610a2d565b5b610c0f87828801610b75565b9450945050602085013567ffffffffffffffff811115610c3257610c31610a2d565b5b610c3e87828801610b75565b925092505092959194509250565b600080600060608486031215610c6557610c64610a28565b5b6000610c7386828701610a7b565b9350506020610c8486828701610a7b565b9250506040610c9586828701610ab1565b9150509250925092565b600060ff82169050919050565b610cb581610c9f565b82525050565b6000602082019050610cd06000830184610cac565b92915050565b600060208284031215610cec57610ceb610a28565b5b6000610cfa84828501610a7b565b91505092915050565b60008060408385031215610d1a57610d19610a28565b5b6000610d2885828601610a7b565b9250506020610d3985828601610a7b565b9150509250929050565b7f4e487b7100000000000000000000000000000000000000000000000000000000600052602260045260246000fd5b60006002820490506001821680610d8a57607f821691505b602082108103610d9d57610d9c610d43565b5b50919050565b82818337600083830152505050565b6000610dbe8385610981565b9350610dcb838584610da3565b610dd4836109bc565b840190509392505050565b60006040820190508181036000830152610dfa818688610db2565b90508181036020830152610e0f818486610db2565b905095945050505050565b7f496e73756666696369656e742062616c616e6365000000000000000000000000600082015250565b6000610e50601483610981565b9150610e5b82610e1a565b602082019050919050565b60006020820190508181036000830152610e7f81610e43565b9050919050565b7f416c6c6f77616e63652065786365656465640000000000000000000000000000600082015250565b6000610ebc601283610981565b9150610ec782610e86565b602082019050919050565b60006020820190508181036000830152610eeb81610eaf565b9050919050565b7f4e487b7100000000000000000000000000000000000000000000000000000000600052601160045260246000fd5b6000610f2c82610a90565b9150610f3783610a90565b9250828203905081811115610f4f57610f4e610ef2565b5b92915050565b6000610f6082610a90565b9150610f6b83610a90565b9250828201905080821115610f8357610f82610ef2565b5b9291505056fea264697066735822122064ca91bb27b149c9b2bd0a383d950712954106ae8be0aceb58e78b975d1b4dcc64736f6c63430008180033",
  "linkReferences": {},
  "deployedLinkReferences": {}
}