{
  "_format": "hh-sol-artifact-1",
  "contractName": "AutomatedFunctionsConsumer",
  "sourceName": "contracts/AutomatedFunctionsConsumer.sol",
  "abi": [
    {
      "inputs": [
        {
          "internalType": "address",
          "name": "router",
          "type": "address"
        },
        {
          "internalType": "bytes32",
          "name": "_donId",
          "type": "bytes32"
        }
      ],
      "stateMutability": "nonpayable",
      "type": "constructor"
    },
    {
      "inputs": [],
      "name": "OnlyRouterCanFulfill",
      "type": "error"
    },
    {
      "anonymous": false,
      "inputs": [
        {
          "indexed": true,
          "internalType": "bytes32",
          "name": "requestId",
          "type": "bytes32"
        },
        {
          "indexed": false,
          "internalType": "bytes",
          "name": "result",
          "type": "bytes"
        },
        {
          "indexed": false,
          "internalType": "bytes",
          "name": "err",
          "type": "bytes"
        }
      ],
      "name": "OCRResponse",
      "type": "event"
    },
    {
      "anonymous": false,
      "inputs": [
        {
          "indexed": true,
          "internalType": "address",
          "name": "from",
          "type": "address"
        },
        {
          "indexed": true,
          "internalType": "address",
          "name": "to",
          "type": "address"
        }
      ],
      "name": "OwnershipTransferRequested",
      "type": "event"
    },
    {
      "anonymous": false,
      "inputs": [
        {
          "indexed": true,
          "internalType": "address",
          "name": "from",
          "type": "address"
        },
        {
          "indexed": true,
          "internalType": "address",
          "name": "to",
          "type": "address"
        }
      ],
      "name": "OwnershipTransferred",
      "type": "event"
    },
    {
      "anonymous": false,
      "inputs": [
        {
          "indexed": true,
          "internalType": "bytes32",
          "name": "id",
          "type": "bytes32"
        }
      ],
      "name": "RequestFulfilled",
      "type": "event"
    },
    {
      "anonymous": false,
      "inputs": [
        {
          "indexed": false,
          "internalType": "string",
          "name": "reason",
          "type": "string"
        }
      ],
      "name": "RequestRevertedWithErrorMsg",
      "type": "event"
    },
    {
      "anonymous": false,
      "inputs": [
        {
          "indexed": false,
          "internalType": "bytes",
          "name": "data",
          "type": "bytes"
        }
      ],
      "name": "RequestRevertedWithoutErrorMsg",
      "type": "event"
    },
    {
      "anonymous": false,
      "inputs": [
        {
          "indexed": true,
          "internalType": "bytes32",
          "name": "id",
          "type": "bytes32"
        }
      ],
      "name": "RequestSent",
      "type": "event"
    },
    {
      "inputs": [],
      "name": "acceptOwnership",
      "outputs": [],
      "stateMutability": "nonpayable",
      "type": "function"
    },
    {
      "inputs": [
        {
          "internalType": "bytes",
          "name": "",
          "type": "bytes"
        }
      ],
      "name": "checkUpkeep",
      "outputs": [
        {
          "internalType": "bool",
          "name": "upkeepNeeded",
          "type": "bool"
        },
        {
          "internalType": "bytes",
          "name": "",
          "type": "bytes"
        }
      ],
      "stateMutability": "view",
      "type": "function"
    },
    {
      "inputs": [],
      "name": "donId",
      "outputs": [
        {
          "internalType": "bytes32",
          "name": "",
          "type": "bytes32"
        }
      ],
      "stateMutability": "view",
      "type": "function"
    },
    {
      "inputs": [
        {
          "internalType": "bytes32",
          "name": "requestId",
          "type": "bytes32"
        },
        {
          "internalType": "bytes",
          "name": "response",
          "type": "bytes"
        },
        {
          "internalType": "bytes",
          "name": "err",
          "type": "bytes"
        }
      ],
      "name": "handleOracleFulfillment",
      "outputs": [],
      "stateMutability": "nonpayable",
      "type": "function"
    },
    {
      "inputs": [],
      "name": "owner",
      "outputs": [
        {
          "internalType": "address",
          "name": "",
          "type": "address"
        }
      ],
      "stateMutability": "view",
      "type": "function"
    },
    {
      "inputs": [
        {
          "internalType": "bytes",
          "name": "",
          "type": "bytes"
        }
      ],
      "name": "performUpkeep",
      "outputs": [],
      "stateMutability": "nonpayable",
      "type": "function"
    },
    {
      "inputs": [],
      "name": "s_fulfillGasLimit",
      "outputs": [
        {
          "internalType": "uint32",
          "name": "",
          "type": "uint32"
        }
      ],
      "stateMutability": "view",
      "type": "function"
    },
    {
      "inputs": [],
      "name": "s_lastError",
      "outputs": [
        {
          "internalType": "bytes",
          "name": "",
          "type": "bytes"
        }
      ],
      "stateMutability": "view",
      "type": "function"
    },
    {
      "inputs": [],
      "name": "s_lastRequestId",
      "outputs": [
        {
          "internalType": "bytes32",
          "name": "",
          "type": "bytes32"
        }
      ],
      "stateMutability": "view",
      "type": "function"
    },
    {
      "inputs": [],
      "name": "s_lastResponse",
      "outputs": [
        {
          "internalType": "bytes",
          "name": "",
          "type": "bytes"
        }
      ],
      "stateMutability": "view",
      "type": "function"
    },
    {
      "inputs": [],
      "name": "s_lastUpkeepTimeStamp",
      "outputs": [
        {
          "internalType": "uint256",
          "name": "",
          "type": "uint256"
        }
      ],
      "stateMutability": "view",
      "type": "function"
    },
    {
      "inputs": [],
      "name": "s_requestCBOR",
      "outputs": [
        {
          "internalType": "bytes",
          "name": "",
          "type": "bytes"
        }
      ],
      "stateMutability": "view",
      "type": "function"
    },
    {
      "inputs": [],
      "name": "s_requestCounter",
      "outputs": [
        {
          "internalType": "uint256",
          "name": "",
          "type": "uint256"
        }
      ],
      "stateMutability": "view",
      "type": "function"
    },
    {
      "inputs": [],
      "name": "s_responseCounter",
      "outputs": [
        {
          "internalType": "uint256",
          "name": "",
          "type": "uint256"
        }
      ],
      "stateMutability": "view",
      "type": "function"
    },
    {
      "inputs": [],
      "name": "s_subscriptionId",
      "outputs": [
        {
          "internalType": "uint64",
          "name": "",
          "type": "uint64"
        }
      ],
      "stateMutability": "view",
      "type": "function"
    },
    {
      "inputs": [],
      "name": "s_updateInterval",
      "outputs": [
        {
          "internalType": "uint256",
          "name": "",
          "type": "uint256"
        }
      ],
      "stateMutability": "view",
      "type": "function"
    },
    {
      "inputs": [],
      "name": "s_upkeepCounter",
      "outputs": [
        {
          "internalType": "uint256",
          "name": "",
          "type": "uint256"
        }
      ],
      "stateMutability": "view",
      "type": "function"
    },
    {
      "inputs": [
        {
          "internalType": "bytes32",
          "name": "newDonId",
          "type": "bytes32"
        }
      ],
      "name": "setDonId",
      "outputs": [],
      "stateMutability": "nonpayable",
      "type": "function"
    },
    {
      "inputs": [
        {
          "internalType": "uint64",
          "name": "_subscriptionId",
          "type": "uint64"
        },
        {
          "internalType": "uint32",
          "name": "_fulfillGasLimit",
          "type": "uint32"
        },
        {
          "internalType": "uint256",
          "name": "_updateInterval",
          "type": "uint256"
        },
        {
          "internalType": "bytes",
          "name": "requestCBOR",
          "type": "bytes"
        }
      ],
      "name": "setRequest",
      "outputs": [],
      "stateMutability": "nonpayable",
      "type": "function"
    },
    {
      "inputs": [
        {
          "internalType": "address",
          "name": "to",
          "type": "address"
        }
      ],
      "name": "transferOwnership",
      "outputs": [],
      "stateMutability": "nonpayable",
      "type": "function"
    }
  ],
  "bytecode": "0x60a06040523480156200001157600080fd5b50604051620021ab380380620021ab833981810160405281019062000037919062000358565b33806000848073ffffffffffffffffffffffffffffffffffffffff1660808173ffffffffffffffffffffffffffffffffffffffff168152505050600073ffffffffffffffffffffffffffffffffffffffff168273ffffffffffffffffffffffffffffffffffffffff1603620000e3576040517f08c379a0000000000000000000000000000000000000000000000000000000008152600401620000da9062000400565b60405180910390fd5b816000806101000a81548173ffffffffffffffffffffffffffffffffffffffff021916908373ffffffffffffffffffffffffffffffffffffffff160217905550600073ffffffffffffffffffffffffffffffffffffffff168173ffffffffffffffffffffffffffffffffffffffff16146200016a5762000169816200018460201b60201c565b5b505050806002819055506000600981905550505062000494565b3373ffffffffffffffffffffffffffffffffffffffff168173ffffffffffffffffffffffffffffffffffffffff1603620001f5576040517f08c379a0000000000000000000000000000000000000000000000000000000008152600401620001ec9062000472565b60405180910390fd5b80600160006101000a81548173ffffffffffffffffffffffffffffffffffffffff021916908373ffffffffffffffffffffffffffffffffffffffff1602179055508073ffffffffffffffffffffffffffffffffffffffff1660008054906101000a900473ffffffffffffffffffffffffffffffffffffffff1673ffffffffffffffffffffffffffffffffffffffff167fed8889f560326eb138920d842192f0eb3dd22b4f139c87a2c57538e05bae127860405160405180910390a350565b600080fd5b600073ffffffffffffffffffffffffffffffffffffffff82169050919050565b6000620002e582620002b8565b9050919050565b620002f781620002d8565b81146200030357600080fd5b50565b6000815190506200031781620002ec565b92915050565b6000819050919050565b62000332816200031d565b81146200033e57600080fd5b50565b600081519050620003528162000327565b92915050565b60008060408385031215620003725762000371620002b3565b5b6000620003828582860162000306565b9250506020620003958582860162000341565b9150509250929050565b600082825260208201905092915050565b7f43616e6e6f7420736574206f776e657220746f207a65726f0000000000000000600082015250565b6000620003e86018836200039f565b9150620003f582620003b0565b602082019050919050565b600060208201905081810360008301526200041b81620003d9565b9050919050565b7f43616e6e6f74207472616e7366657220746f2073656c66000000000000000000600082015250565b60006200045a6017836200039f565b9150620004678262000422565b602082019050919050565b600060208201905081810360008301526200048d816200044b565b9050919050565b608051611cf4620004b76000396000818161038001526105550152611cf46000f3fe608060405234801561001057600080fd5b506004361061012c5760003560e01c80638ac00021116100ad578063dc180fc211610071578063dc180fc2146102ec578063e184b0c21461030a578063eb197c7714610328578063f2fde38b14610344578063f5c1279b146103605761012c565b80638ac00021146102565780638da5cb5b146102745780638dbe7b9d146102925780639959268a146102b0578063b1e21749146102ce5761012c565b806348802b92116100f457806348802b92146101c35780634b0795a8146101e15780636e04ff0d146101ff57806378ca5de71461023057806379ba50971461024c5761012c565b80630ca76175146101315780630cc9c94d1461014d5780633944ea3a1461016b57806343cd3d86146101895780634585e33b146101a7575b600080fd5b61014b60048036038101906101469190610ee3565b61037e565b005b610155610440565b6040516101629190610f87565b60405180910390f35b610173610446565b6040516101809190611021565b60405180910390f35b6101916104d4565b60405161019e9190610f87565b60405180910390f35b6101c160048036038101906101bc91906110a3565b6104da565b005b6101cb610746565b6040516101d89190610f87565b60405180910390f35b6101e961074c565b6040516101f69190611021565b60405180910390f35b610219600480360381019061021491906110f0565b6107da565b604051610227929190611154565b60405180910390f35b61024a60048036038101906102459190611184565b6107f7565b005b610254610809565b005b61025e61099e565b60405161026b91906111d4565b60405180910390f35b61027c6109b8565b6040516102899190611230565b60405180910390f35b61029a6109e1565b6040516102a7919061125a565b60405180910390f35b6102b86109e7565b6040516102c59190610f87565b60405180910390f35b6102d66109ed565b6040516102e3919061125a565b60405180910390f35b6102f46109f3565b6040516103019190611294565b60405180910390f35b610312610a09565b60405161031f9190611021565b60405180910390f35b610342600480360381019061033d9190611333565b610a97565b005b61035e600480360381019061035991906113e7565b610b09565b005b610368610b1d565b6040516103759190610f87565b60405180910390f35b7f000000000000000000000000000000000000000000000000000000000000000073ffffffffffffffffffffffffffffffffffffffff163373ffffffffffffffffffffffffffffffffffffffff1614610403576040517fc6829f8300000000000000000000000000000000000000000000000000000000815260040160405180910390fd5b61040e838383610b23565b827f85e1543bf2f84fe80c6badbce3648c8539ad1df4d2b3d822938ca0538be727e660405160405180910390a2505050565b60095481565b6006805461045390611443565b80601f016020809104026020016040519081016040528092919081815260200182805461047f90611443565b80156104cc5780601f106104a1576101008083540402835291602001916104cc565b820191906000526020600020905b8154815290600101906020018083116104af57829003601f168201915b505050505081565b600c5481565b60006104f4604051806020016040528060008152506107da565b50905080610537576040517f08c379a000000000000000000000000000000000000000000000000000000000815260040161052e906114d1565b60405180910390fd5b426009819055506001600a5461054d9190611520565b600a819055507f000000000000000000000000000000000000000000000000000000000000000073ffffffffffffffffffffffffffffffffffffffff1663461d2762600460009054906101000a900467ffffffffffffffff1660036001600460089054906101000a900463ffffffff166002546040518663ffffffff1660e01b81526004016105e095949392919061160a565b6020604051808303816000875af192505050801561061c57506040513d601f19601f820116820180604052508101906106199190611679565b60015b6106f6576106286116b3565b806308c379a003610684575061063c6116d5565b806106475750610686565b7f2ba61e3733e7ac99181c22307780f651ec8fd92fe661a84dfbe711710b2dc36c8160405161067691906117a9565b60405180910390a1506106f1565b505b3d80600081146106b2576040519150601f19603f3d011682016040523d82523d6000602084013e6106b7565b606091505b507f9c4bfa18304482256875c29fabb1a44a5ecd325f214ea17bab8f31e869faf4c8816040516106e79190611021565b60405180910390a1505b610741565b6001600b546107059190611520565b600b8190555080600581905550807f1131472297a800fee664d1d89cfa8f7676ff07189ecc53f80bbb5f4969099db860405160405180910390a2505b505050565b600b5481565b6007805461075990611443565b80601f016020809104026020016040519081016040528092919081815260200182805461078590611443565b80156107d25780601f106107a7576101008083540402835291602001916107d2565b820191906000526020600020905b8154815290600101906020018083116107b557829003601f168201915b505050505081565b60006060600854600954426107ef91906117cb565b119150915091565b6107ff610b97565b8060028190555050565b600160009054906101000a900473ffffffffffffffffffffffffffffffffffffffff1673ffffffffffffffffffffffffffffffffffffffff163373ffffffffffffffffffffffffffffffffffffffff1614610899576040517f08c379a00000000000000000000000000000000000000000000000000000000081526004016108909061184b565b60405180910390fd5b60008060009054906101000a900473ffffffffffffffffffffffffffffffffffffffff169050336000806101000a81548173ffffffffffffffffffffffffffffffffffffffff021916908373ffffffffffffffffffffffffffffffffffffffff1602179055506000600160006101000a81548173ffffffffffffffffffffffffffffffffffffffff021916908373ffffffffffffffffffffffffffffffffffffffff1602179055503373ffffffffffffffffffffffffffffffffffffffff168173ffffffffffffffffffffffffffffffffffffffff167f8be0079c531659141344cd1fd0a4f28419497f9722a3daafe3b4186f6b6457e060405160405180910390a350565b600460009054906101000a900467ffffffffffffffff1681565b60008060009054906101000a900473ffffffffffffffffffffffffffffffffffffffff16905090565b60025481565b60085481565b60055481565b600460089054906101000a900463ffffffff1681565b60038054610a1690611443565b80601f0160208091040260200160405190810160405280929190818152602001828054610a4290611443565b8015610a8f5780601f10610a6457610100808354040283529160200191610a8f565b820191906000526020600020905b815481529060010190602001808311610a7257829003601f168201915b505050505081565b610a9f610b97565b8260088190555084600460006101000a81548167ffffffffffffffff021916908367ffffffffffffffff16021790555083600460086101000a81548163ffffffff021916908363ffffffff160217905550818160039182610b01929190611a0d565b505050505050565b610b11610b97565b610b1a81610c27565b50565b600a5481565b8160069081610b329190611add565b508060079081610b429190611add565b506001600c54610b529190611520565b600c81905550827f7bab0ec163b5c132c72b8146ac4d6e067e82ed58f8b131150aa71c92589115628383604051610b8a929190611baf565b60405180910390a2505050565b60008054906101000a900473ffffffffffffffffffffffffffffffffffffffff1673ffffffffffffffffffffffffffffffffffffffff163373ffffffffffffffffffffffffffffffffffffffff1614610c25576040517f08c379a0000000000000000000000000000000000000000000000000000000008152600401610c1c90611c32565b60405180910390fd5b565b3373ffffffffffffffffffffffffffffffffffffffff168173ffffffffffffffffffffffffffffffffffffffff1603610c95576040517f08c379a0000000000000000000000000000000000000000000000000000000008152600401610c8c90611c9e565b60405180910390fd5b80600160006101000a81548173ffffffffffffffffffffffffffffffffffffffff021916908373ffffffffffffffffffffffffffffffffffffffff1602179055508073ffffffffffffffffffffffffffffffffffffffff1660008054906101000a900473ffffffffffffffffffffffffffffffffffffffff1673ffffffffffffffffffffffffffffffffffffffff167fed8889f560326eb138920d842192f0eb3dd22b4f139c87a2c57538e05bae127860405160405180910390a350565b6000604051905090565b600080fd5b600080fd5b6000819050919050565b610d7a81610d67565b8114610d8557600080fd5b50565b600081359050610d9781610d71565b92915050565b600080fd5b600080fd5b6000601f19601f8301169050919050565b7f4e487b7100000000000000000000000000000000000000000000000000000000600052604160045260246000fd5b610df082610da7565b810181811067ffffffffffffffff82111715610e0f57610e0e610db8565b5b80604052505050565b6000610e22610d53565b9050610e2e8282610de7565b919050565b600067ffffffffffffffff821115610e4e57610e4d610db8565b5b610e5782610da7565b9050602081019050919050565b82818337600083830152505050565b6000610e86610e8184610e33565b610e18565b905082815260208101848484011115610ea257610ea1610da2565b5b610ead848285610e64565b509392505050565b600082601f830112610eca57610ec9610d9d565b5b8135610eda848260208601610e73565b91505092915050565b600080600060608486031215610efc57610efb610d5d565b5b6000610f0a86828701610d88565b935050602084013567ffffffffffffffff811115610f2b57610f2a610d62565b5b610f3786828701610eb5565b925050604084013567ffffffffffffffff811115610f5857610f57610d62565b5b610f6486828701610eb5565b9150509250925092565b6000819050919050565b610f8181610f6e565b82525050565b6000602082019050610f9c6000830184610f78565b92915050565b600081519050919050565b600082825260208201905092915050565b60005b83811015610fdc578082015181840152602081019050610fc1565b60008484015250505050565b6000610ff382610fa2565b610ffd8185610fad565b935061100d818560208601610fbe565b61101681610da7565b840191505092915050565b6000602082019050818103600083015261103b8184610fe8565b905092915050565b600080fd5b600080fd5b60008083601f84011261106357611062610d9d565b5b8235905067ffffffffffffffff8111156110805761107f611043565b5b60208301915083600182028301111561109c5761109b611048565b5b9250929050565b600080602083850312156110ba576110b9610d5d565b5b600083013567ffffffffffffffff8111156110d8576110d7610d62565b5b6110e48582860161104d565b92509250509250929050565b60006020828403121561110657611105610d5d565b5b600082013567ffffffffffffffff81111561112457611123610d62565b5b61113084828501610eb5565b91505092915050565b60008115159050919050565b61114e81611139565b82525050565b60006040820190506111696000830185611145565b818103602083015261117b8184610fe8565b90509392505050565b60006020828403121561119a57611199610d5d565b5b60006111a884828501610d88565b91505092915050565b600067ffffffffffffffff82169050919050565b6111ce816111b1565b82525050565b60006020820190506111e960008301846111c5565b92915050565b600073ffffffffffffffffffffffffffffffffffffffff82169050919050565b600061121a826111ef565b9050919050565b61122a8161120f565b82525050565b60006020820190506112456000830184611221565b92915050565b61125481610d67565b82525050565b600060208201905061126f600083018461124b565b92915050565b600063ffffffff82169050919050565b61128e81611275565b82525050565b60006020820190506112a96000830184611285565b92915050565b6112b8816111b1565b81146112c357600080fd5b50565b6000813590506112d5816112af565b92915050565b6112e481611275565b81146112ef57600080fd5b50565b600081359050611301816112db565b92915050565b61131081610f6e565b811461131b57600080fd5b50565b60008135905061132d81611307565b92915050565b60008060008060006080868803121561134f5761134e610d5d565b5b600061135d888289016112c6565b955050602061136e888289016112f2565b945050604061137f8882890161131e565b935050606086013567ffffffffffffffff8111156113a05761139f610d62565b5b6113ac8882890161104d565b92509250509295509295909350565b6113c48161120f565b81146113cf57600080fd5b50565b6000813590506113e1816113bb565b92915050565b6000602082840312156113fd576113fc610d5d565b5b600061140b848285016113d2565b91505092915050565b7f4e487b7100000000000000000000000000000000000000000000000000000000600052602260045260246000fd5b6000600282049050600182168061145b57607f821691505b60208210810361146e5761146d611414565b5b50919050565b600082825260208201905092915050565b7f54696d6520696e74657276616c206e6f74206d65740000000000000000000000600082015250565b60006114bb601583611474565b91506114c682611485565b602082019050919050565b600060208201905081810360008301526114ea816114ae565b9050919050565b7f4e487b7100000000000000000000000000000000000000000000000000000000600052601160045260246000fd5b600061152b82610f6e565b915061153683610f6e565b925082820190508082111561154e5761154d6114f1565b5b92915050565b60008190508160005260206000209050919050565b6000815461157681611443565b6115808186610fad565b9450600182166000811461159b57600181146115b1576115e4565b60ff1983168652811515602002860193506115e4565b6115ba85611554565b60005b838110156115dc578154818901526001820191506020810190506115bd565b808801955050505b50505092915050565b600061ffff82169050919050565b611604816115ed565b82525050565b600060a08201905061161f60008301886111c5565b81810360208301526116318187611569565b905061164060408301866115fb565b61164d6060830185611285565b61165a608083018461124b565b9695505050505050565b60008151905061167381610d71565b92915050565b60006020828403121561168f5761168e610d5d565b5b600061169d84828501611664565b91505092915050565b60008160e01c9050919050565b600060033d11156116d25760046000803e6116cf6000516116a6565b90505b90565b600060443d10611762576116e7610d53565b60043d036004823e80513d602482011167ffffffffffffffff8211171561170f575050611762565b808201805167ffffffffffffffff81111561172d5750505050611762565b80602083010160043d03850181111561174a575050505050611762565b61175982602001850186610de7565b82955050505050505b90565b600081519050919050565b600061177b82611765565b6117858185611474565b9350611795818560208601610fbe565b61179e81610da7565b840191505092915050565b600060208201905081810360008301526117c38184611770565b905092915050565b60006117d682610f6e565b91506117e183610f6e565b92508282039050818111156117f9576117f86114f1565b5b92915050565b7f4d7573742062652070726f706f736564206f776e657200000000000000000000600082015250565b6000611835601683611474565b9150611840826117ff565b602082019050919050565b6000602082019050818103600083015261186481611828565b9050919050565b600082905092915050565b60006020601f8301049050919050565b600082821b905092915050565b6000600883026118c37fffffffffffffffffffffffffffffffffffffffffffffffffffffffffffffffff82611886565b6118cd8683611886565b95508019841693508086168417925050509392505050565b6000819050919050565b600061190a61190561190084610f6e565b6118e5565b610f6e565b9050919050565b6000819050919050565b611924836118ef565b61193861193082611911565b848454611893565b825550505050565b600090565b61194d611940565b61195881848461191b565b505050565b5b8181101561197c57611971600082611945565b60018101905061195e565b5050565b601f8211156119c15761199281611554565b61199b84611876565b810160208510156119aa578190505b6119be6119b685611876565b83018261195d565b50505b505050565b600082821c905092915050565b60006119e4600019846008026119c6565b1980831691505092915050565b60006119fd83836119d3565b9150826002028217905092915050565b611a17838361186b565b67ffffffffffffffff811115611a3057611a2f610db8565b5b611a3a8254611443565b611a45828285611980565b6000601f831160018114611a745760008415611a62578287013590505b611a6c85826119f1565b865550611ad4565b601f198416611a8286611554565b60005b82811015611aaa57848901358255600182019150602085019450602081019050611a85565b86831015611ac75784890135611ac3601f8916826119d3565b8355505b6001600288020188555050505b50505050505050565b611ae682610fa2565b67ffffffffffffffff811115611aff57611afe610db8565b5b611b098254611443565b611b14828285611980565b600060209050601f831160018114611b475760008415611b35578287015190505b611b3f85826119f1565b865550611ba7565b601f198416611b5586611554565b60005b82811015611b7d57848901518255600182019150602085019450602081019050611b58565b86831015611b9a5784890151611b96601f8916826119d3565b8355505b6001600288020188555050505b505050505050565b60006040820190508181036000830152611bc98185610fe8565b90508181036020830152611bdd8184610fe8565b90509392505050565b7f4f6e6c792063616c6c61626c65206279206f776e657200000000000000000000600082015250565b6000611c1c601683611474565b9150611c2782611be6565b602082019050919050565b60006020820190508181036000830152611c4b81611c0f565b9050919050565b7f43616e6e6f74207472616e7366657220746f2073656c66000000000000000000600082015250565b6000611c88601783611474565b9150611c9382611c52565b602082019050919050565b60006020820190508181036000830152611cb781611c7b565b905091905056fea26469706673582212202311aae6dd5f0b0ca67c3e400308926bdc77b766f837ec9b3646699c977428a464736f6c63430008180033",
  "linkReferences": {},
  "deployedLinkReferences": {}
}