{
  "_format": "hh-sol-artifact-1",
  "contractName": "FunctionsConsumer",
  "sourceName": "contracts/FunctionsConsumer.sol",
  "abi": [
    {
      "inputs": [
        {
          "internalType": "address",
          "name": "router",
          "type": "address"
        },
        {
          "internalType": "bytes32",
          "name": "_donId",
          "type": "bytes32"
        }
      ],
      "stateMutability": "nonpayable",
      "type": "constructor"
    },
    {
      "inputs": [],
      "name": "EmptyArgs",
      "type": "error"
    },
    {
      "inputs": [],
      "name": "EmptySource",
      "type": "error"
    },
    {
      "inputs": [],
      "name": "NoInlineSecrets",
      "type": "error"
    },
    {
      "inputs": [],
      "name": "OnlyRouterCanFulfill",
      "type": "error"
    },
    {
      "anonymous": false,
      "inputs": [
        {
          "indexed": true,
          "internalType": "address",
          "name": "from",
          "type": "address"
        },
        {
          "indexed": true,
          "internalType": "address",
          "name": "to",
          "type": "address"
        }
      ],
      "name": "OwnershipTransferRequested",
      "type": "event"
    },
    {
      "anonymous": false,
      "inputs": [
        {
          "indexed": true,
          "internalType": "address",
          "name": "from",
          "type": "address"
        },
        {
          "indexed": true,
          "internalType": "address",
          "name": "to",
          "type": "address"
        }
      ],
      "name": "OwnershipTransferred",
      "type": "event"
    },
    {
      "anonymous": false,
      "inputs": [
        {
          "indexed": true,
          "internalType": "bytes32",
          "name": "id",
          "type": "bytes32"
        }
      ],
      "name": "RequestFulfilled",
      "type": "event"
    },
    {
      "anonymous": false,
      "inputs": [
        {
          "indexed": true,
          "internalType": "bytes32",
          "name": "id",
          "type": "bytes32"
        }
      ],
      "name": "RequestSent",
      "type": "event"
    },
    {
      "inputs": [],
      "name": "acceptOwnership",
      "outputs": [],
      "stateMutability": "nonpayable",
      "type": "function"
    },
    {
      "inputs": [],
      "name": "donId",
      "outputs": [
        {
          "internalType": "bytes32",
          "name": "",
          "type": "bytes32"
        }
      ],
      "stateMutability": "view",
      "type": "function"
    },
    {
      "inputs": [
        {
          "internalType": "bytes32",
          "name": "requestId",
          "type": "bytes32"
        },
        {
          "internalType": "bytes",
          "name": "response",
          "type": "bytes"
        },
        {
          "internalType": "bytes",
          "name": "err",
          "type": "bytes"
        }
      ],
      "name": "handleOracleFulfillment",
      "outputs": [],
      "stateMutability": "nonpayable",
      "type": "function"
    },
    {
      "inputs": [],
      "name": "owner",
      "outputs": [
        {
          "internalType": "address",
          "name": "",
          "type": "address"
        }
      ],
      "stateMutability": "view",
      "type": "function"
    },
    {
      "inputs": [],
      "name": "s_lastError",
      "outputs": [
        {
          "internalType": "bytes",
          "name": "",
          "type": "bytes"
        }
      ],
      "stateMutability": "view",
      "type": "function"
    },
    {
      "inputs": [],
      "name": "s_lastRequestId",
      "outputs": [
        {
          "internalType": "bytes32",
          "name": "",
          "type": "bytes32"
        }
      ],
      "stateMutability": "view",
      "type": "function"
    },
    {
      "inputs": [],
      "name": "s_lastResponse",
      "outputs": [
        {
          "internalType": "bytes",
          "name": "",
          "type": "bytes"
        }
      ],
      "stateMutability": "view",
      "type": "function"
    },
    {
      "inputs": [
        {
          "internalType": "string",
          "name": "source",
          "type": "string"
        },
        {
          "internalType": "enum FunctionsRequest.Location",
          "name": "secretsLocation",
          "type": "uint8"
        },
        {
          "internalType": "bytes",
          "name": "encryptedSecretsReference",
          "type": "bytes"
        },
        {
          "internalType": "string[]",
          "name": "args",
          "type": "string[]"
        },
        {
          "internalType": "bytes[]",
          "name": "bytesArgs",
          "type": "bytes[]"
        },
        {
          "internalType": "uint64",
          "name": "subscriptionId",
          "type": "uint64"
        },
        {
          "internalType": "uint32",
          "name": "callbackGasLimit",
          "type": "uint32"
        }
      ],
      "name": "sendRequest",
      "outputs": [],
      "stateMutability": "nonpayable",
      "type": "function"
    },
    {
      "inputs": [
        {
          "internalType": "bytes32",
          "name": "newDonId",
          "type": "bytes32"
        }
      ],
      "name": "setDonId",
      "outputs": [],
      "stateMutability": "nonpayable",
      "type": "function"
    },
    {
      "inputs": [
        {
          "internalType": "address",
          "name": "to",
          "type": "address"
        }
      ],
      "name": "transferOwnership",
      "outputs": [],
      "stateMutability": "nonpayable",
      "type": "function"
    }
  ],
  "bytecode": "0x60a06040523480156200001157600080fd5b5060405162002b7938038062002b79833981810160405281019062000037919062000350565b33806000848073ffffffffffffffffffffffffffffffffffffffff1660808173ffffffffffffffffffffffffffffffffffffffff168152505050600073ffffffffffffffffffffffffffffffffffffffff168273ffffffffffffffffffffffffffffffffffffffff1603620000e3576040517f08c379a0000000000000000000000000000000000000000000000000000000008152600401620000da90620003f8565b60405180910390fd5b816000806101000a81548173ffffffffffffffffffffffffffffffffffffffff021916908373ffffffffffffffffffffffffffffffffffffffff160217905550600073ffffffffffffffffffffffffffffffffffffffff168173ffffffffffffffffffffffffffffffffffffffff16146200016a5762000169816200017c60201b60201c565b5b5050508060028190555050506200048c565b3373ffffffffffffffffffffffffffffffffffffffff168173ffffffffffffffffffffffffffffffffffffffff1603620001ed576040517f08c379a0000000000000000000000000000000000000000000000000000000008152600401620001e4906200046a565b60405180910390fd5b80600160006101000a81548173ffffffffffffffffffffffffffffffffffffffff021916908373ffffffffffffffffffffffffffffffffffffffff1602179055508073ffffffffffffffffffffffffffffffffffffffff1660008054906101000a900473ffffffffffffffffffffffffffffffffffffffff1673ffffffffffffffffffffffffffffffffffffffff167fed8889f560326eb138920d842192f0eb3dd22b4f139c87a2c57538e05bae127860405160405180910390a350565b600080fd5b600073ffffffffffffffffffffffffffffffffffffffff82169050919050565b6000620002dd82620002b0565b9050919050565b620002ef81620002d0565b8114620002fb57600080fd5b50565b6000815190506200030f81620002e4565b92915050565b6000819050919050565b6200032a8162000315565b81146200033657600080fd5b50565b6000815190506200034a816200031f565b92915050565b600080604083850312156200036a5762000369620002ab565b5b60006200037a85828601620002fe565b92505060206200038d8582860162000339565b9150509250929050565b600082825260208201905092915050565b7f43616e6e6f7420736574206f776e657220746f207a65726f0000000000000000600082015250565b6000620003e060188362000397565b9150620003ed82620003a8565b602082019050919050565b600060208201905081810360008301526200041381620003d1565b9050919050565b7f43616e6e6f74207472616e7366657220746f2073656c66000000000000000000600082015250565b60006200045260178362000397565b91506200045f826200041a565b602082019050919050565b60006020820190508181036000830152620004858162000443565b9050919050565b6080516126ca620004af600039600081816101b50152610cf001526126ca6000f3fe608060405234801561001057600080fd5b506004361061009e5760003560e01c806379ba50971161006657806379ba5097146101335780638da5cb5b1461013d5780638dbe7b9d1461015b578063b1e2174914610179578063f2fde38b146101975761009e565b80630ca76175146100a3578063231c1619146100bf5780633944ea3a146100db5780634b0795a8146100f957806378ca5de714610117575b600080fd5b6100bd60048036038101906100b891906116b1565b6101b3565b005b6100d960048036038101906100d4919061193f565b610275565b005b6100e36103e0565b6040516100f09190611ae2565b60405180910390f35b61010161046e565b60405161010e9190611ae2565b60405180910390f35b610131600480360381019061012c9190611b04565b6104fc565b005b61013b61050e565b005b6101456106a3565b6040516101529190611b72565b60405180910390f35b6101636106cc565b6040516101709190611b9c565b60405180910390f35b6101816106d2565b60405161018e9190611b9c565b60405180910390f35b6101b160048036038101906101ac9190611be3565b6106d8565b005b7f000000000000000000000000000000000000000000000000000000000000000073ffffffffffffffffffffffffffffffffffffffff163373ffffffffffffffffffffffffffffffffffffffff1614610238576040517fc6829f8300000000000000000000000000000000000000000000000000000000815260040160405180910390fd5b6102438383836106ec565b827f85e1543bf2f84fe80c6badbce3648c8539ad1df4d2b3d822938ca0538be727e660405160405180910390a2505050565b61027d610711565b610285611475565b6102e16000808e8e8080601f016020809104026020016040519081016040528093929190818152602001838380828437600081840152601f19601f82011690508083019250505050505050846107a1909392919063ffffffff16565b89816020019060028111156102f9576102f8611c10565b5b9081600281111561030d5761030c611c10565b5b8152505088888080601f016020809104026020016040519081016040528093929190818152602001838380828437600081840152601f19601f820116905080830192505050505050508160800181905250600087879050111561038a5761038987879061037a9190611d93565b8261084b90919063ffffffff16565b5b60008585905011156103b6576103b58585906103a69190611e5b565b8261089390919063ffffffff16565b5b6103cc6103c2826108db565b8484600254610ceb565b600381905550505050505050505050505050565b600480546103ed90611e9f565b80601f016020809104026020016040519081016040528092919081815260200182805461041990611e9f565b80156104665780601f1061043b57610100808354040283529160200191610466565b820191906000526020600020905b81548152906001019060200180831161044957829003601f168201915b505050505081565b6005805461047b90611e9f565b80601f01602080910402602001604051908101604052809291908181526020018280546104a790611e9f565b80156104f45780601f106104c9576101008083540402835291602001916104f4565b820191906000526020600020905b8154815290600101906020018083116104d757829003601f168201915b505050505081565b610504610711565b8060028190555050565b600160009054906101000a900473ffffffffffffffffffffffffffffffffffffffff1673ffffffffffffffffffffffffffffffffffffffff163373ffffffffffffffffffffffffffffffffffffffff161461059e576040517f08c379a000000000000000000000000000000000000000000000000000000000815260040161059590611f2d565b60405180910390fd5b60008060009054906101000a900473ffffffffffffffffffffffffffffffffffffffff169050336000806101000a81548173ffffffffffffffffffffffffffffffffffffffff021916908373ffffffffffffffffffffffffffffffffffffffff1602179055506000600160006101000a81548173ffffffffffffffffffffffffffffffffffffffff021916908373ffffffffffffffffffffffffffffffffffffffff1602179055503373ffffffffffffffffffffffffffffffffffffffff168173ffffffffffffffffffffffffffffffffffffffff167f8be0079c531659141344cd1fd0a4f28419497f9722a3daafe3b4186f6b6457e060405160405180910390a350565b60008060009054906101000a900473ffffffffffffffffffffffffffffffffffffffff16905090565b60025481565b60035481565b6106e0610711565b6106e981610dce565b50565b81600490816106fb9190612103565b50806005908161070b9190612103565b50505050565b60008054906101000a900473ffffffffffffffffffffffffffffffffffffffff1673ffffffffffffffffffffffffffffffffffffffff163373ffffffffffffffffffffffffffffffffffffffff161461079f576040517f08c379a000000000000000000000000000000000000000000000000000000000815260040161079690612221565b60405180910390fd5b565b60008151036107dc576040517f22ce3edd00000000000000000000000000000000000000000000000000000000815260040160405180910390fd5b82846000019060028111156107f4576107f3611c10565b5b9081600281111561080857610807611c10565b5b81525050818460400190600081111561082457610823611c10565b5b9081600081111561083857610837611c10565b5b8152505080846060018190525050505050565b6000815103610886576040517ffe936cb700000000000000000000000000000000000000000000000000000000815260040160405180910390fd5b808260a001819052505050565b60008151036108ce576040517ffe936cb700000000000000000000000000000000000000000000000000000000815260040160405180910390fd5b808260c001819052505050565b606060006108ea610100610efa565b90506109346040518060400160405280600c81526020017f636f64654c6f636174696f6e000000000000000000000000000000000000000081525082610f2190919063ffffffff16565b61095d8360000151600281111561094e5761094d611c10565b5b82610f4a90919063ffffffff16565b6109a56040518060400160405280600881526020017f6c616e677561676500000000000000000000000000000000000000000000000081525082610f2190919063ffffffff16565b6109ce836040015160008111156109bf576109be611c10565b5b82610f4a90919063ffffffff16565b610a166040518060400160405280600681526020017f736f75726365000000000000000000000000000000000000000000000000000081525082610f2190919063ffffffff16565b610a2d836060015182610f2190919063ffffffff16565b60008360a00151511115610ae357610a836040518060400160405280600481526020017f617267730000000000000000000000000000000000000000000000000000000081525082610f2190919063ffffffff16565b610a8c81610f9a565b60005b8360a0015151811015610ad857610acd8460a001518281518110610ab657610ab5612241565b5b602002602001015183610f2190919063ffffffff16565b806001019050610a8f565b50610ae281610fc2565b5b60008360800151511115610c245760006002811115610b0557610b04611c10565b5b83602001516002811115610b1c57610b1b611c10565b5b03610b53576040517fa80d31f700000000000000000000000000000000000000000000000000000000815260040160405180910390fd5b610b9b6040518060400160405280600f81526020017f736563726574734c6f636174696f6e000000000000000000000000000000000081525082610f2190919063ffffffff16565b610bc483602001516002811115610bb557610bb4611c10565b5b82610f4a90919063ffffffff16565b610c0c6040518060400160405280600781526020017f736563726574730000000000000000000000000000000000000000000000000081525082610f2190919063ffffffff16565b610c23836080015182610fea90919063ffffffff16565b5b60008360c00151511115610cda57610c7a6040518060400160405280600981526020017f627974657341726773000000000000000000000000000000000000000000000081525082610f2190919063ffffffff16565b610c8381610f9a565b60005b8360c0015151811015610ccf57610cc48460c001518281518110610cad57610cac612241565b5b602002602001015183610fea90919063ffffffff16565b806001019050610c86565b50610cd981610fc2565b5b806000015160000151915050919050565b6000807f000000000000000000000000000000000000000000000000000000000000000073ffffffffffffffffffffffffffffffffffffffff1663461d27628688600188886040518663ffffffff1660e01b8152600401610d509594939291906122ab565b6020604051808303816000875af1158015610d6f573d6000803e3d6000fd5b505050506040513d601f19601f82011682018060405250810190610d93919061231a565b9050807f1131472297a800fee664d1d89cfa8f7676ff07189ecc53f80bbb5f4969099db860405160405180910390a280915050949350505050565b3373ffffffffffffffffffffffffffffffffffffffff168173ffffffffffffffffffffffffffffffffffffffff1603610e3c576040517f08c379a0000000000000000000000000000000000000000000000000000000008152600401610e3390612393565b60405180910390fd5b80600160006101000a81548173ffffffffffffffffffffffffffffffffffffffff021916908373ffffffffffffffffffffffffffffffffffffffff1602179055508073ffffffffffffffffffffffffffffffffffffffff1660008054906101000a900473ffffffffffffffffffffffffffffffffffffffff1673ffffffffffffffffffffffffffffffffffffffff167fed8889f560326eb138920d842192f0eb3dd22b4f139c87a2c57538e05bae127860405160405180910390a350565b610f026114e7565b610f10816000015183611013565b506000816020018181525050919050565b610f2e826003835161108c565b610f4581836000015161123590919063ffffffff16565b505050565b610f6c60026005600660ff16901b17836000015161125190919063ffffffff16565b50610f968282604051602001610f8291906123c2565b604051602081830303815290604052610fea565b5050565b610fa58160046112bb565b600181602001818151610fb8919061240c565b9150818152505050565b610fcd8160076112bb565b600181602001818151610fe09190612440565b9150818152505050565b610ff7826002835161108c565b61100e81836000015161123590919063ffffffff16565b505050565b61101b611507565b600060208361102a91906124a3565b146110565760208261103c91906124a3565b60206110489190612440565b82611053919061240c565b91505b81836020018181525050604051808452600081528281016020018181101561107d57600080fd5b80604052505082905092915050565b60178167ffffffffffffffff16116110c7576110c18160058460ff16901b60ff1617846000015161125190919063ffffffff16565b50611230565b60ff8167ffffffffffffffff1611611125576110fa601860058460ff16901b17846000015161125190919063ffffffff16565b5061111f8167ffffffffffffffff16600185600001516112e19092919063ffffffff16565b5061122f565b61ffff8167ffffffffffffffff161161118457611159601960058460ff16901b17846000015161125190919063ffffffff16565b5061117e8167ffffffffffffffff16600285600001516112e19092919063ffffffff16565b5061122e565b63ffffffff8167ffffffffffffffff16116111e5576111ba601a60058460ff16901b17846000015161125190919063ffffffff16565b506111df8167ffffffffffffffff16600485600001516112e19092919063ffffffff16565b5061122d565b611206601b60058460ff16901b17846000015161125190919063ffffffff16565b5061122b8167ffffffffffffffff16600885600001516112e19092919063ffffffff16565b505b5b5b5b505050565b61123d611507565b6112498383845161136e565b905092915050565b611259611507565b600083600001515190506000600182611272919061240c565b905084602001518210611296576112958560028361129091906124d4565b611451565b5b845160208382010185815381518311156112ae578282525b5050849250505092915050565b6112dc601f60058360ff16901b17836000015161125190919063ffffffff16565b505050565b6112e9611507565b6000846000015151905060008184611301919061240c565b90508560200151811115611326576113258660028361132091906124d4565b611451565b5b60006001856101006113389190612649565b6113429190612440565b90508651828101878319825116178152815184111561135f578382525b50508693505050509392505050565b611376611507565b825182111561138457600080fd5b600084600001515190506000838261139c919061240c565b905085602001518111156113c1576113c0866002836113bb91906124d4565b611451565b5b600080875180518560208301019350808511156113dc578482525b60208901925050505b6020861061142357805182526020826113fe919061240c565b915060208161140d919061240c565b905060208661141c9190612440565b95506113e5565b60006001876020036101000a0390508019825116818451168181178552505050879450505050509392505050565b6000826000015190506114648383611013565b5061146f8382611235565b50505050565b6040518060e001604052806000600281111561149457611493611c10565b5b8152602001600060028111156114ad576114ac611c10565b5b81526020016000808111156114c5576114c4611c10565b5b8152602001606081526020016060815260200160608152602001606081525090565b60405180604001604052806114fa611507565b8152602001600081525090565b604051806040016040528060608152602001600081525090565b6000604051905090565b600080fd5b600080fd5b6000819050919050565b61154881611535565b811461155357600080fd5b50565b6000813590506115658161153f565b92915050565b600080fd5b600080fd5b6000601f19601f8301169050919050565b7f4e487b7100000000000000000000000000000000000000000000000000000000600052604160045260246000fd5b6115be82611575565b810181811067ffffffffffffffff821117156115dd576115dc611586565b5b80604052505050565b60006115f0611521565b90506115fc82826115b5565b919050565b600067ffffffffffffffff82111561161c5761161b611586565b5b61162582611575565b9050602081019050919050565b82818337600083830152505050565b600061165461164f84611601565b6115e6565b9050828152602081018484840111156116705761166f611570565b5b61167b848285611632565b509392505050565b600082601f8301126116985761169761156b565b5b81356116a8848260208601611641565b91505092915050565b6000806000606084860312156116ca576116c961152b565b5b60006116d886828701611556565b935050602084013567ffffffffffffffff8111156116f9576116f8611530565b5b61170586828701611683565b925050604084013567ffffffffffffffff81111561172657611725611530565b5b61173286828701611683565b9150509250925092565b600080fd5b600080fd5b60008083601f84011261175c5761175b61156b565b5b8235905067ffffffffffffffff8111156117795761177861173c565b5b60208301915083600182028301111561179557611794611741565b5b9250929050565b600381106117a957600080fd5b50565b6000813590506117bb8161179c565b92915050565b60008083601f8401126117d7576117d661156b565b5b8235905067ffffffffffffffff8111156117f4576117f361173c565b5b6020830191508360018202830111156118105761180f611741565b5b9250929050565b60008083601f84011261182d5761182c61156b565b5b8235905067ffffffffffffffff81111561184a5761184961173c565b5b60208301915083602082028301111561186657611865611741565b5b9250929050565b60008083601f8401126118835761188261156b565b5b8235905067ffffffffffffffff8111156118a05761189f61173c565b5b6020830191508360208202830111156118bc576118bb611741565b5b9250929050565b600067ffffffffffffffff82169050919050565b6118e0816118c3565b81146118eb57600080fd5b50565b6000813590506118fd816118d7565b92915050565b600063ffffffff82169050919050565b61191c81611903565b811461192757600080fd5b50565b60008135905061193981611913565b92915050565b600080600080600080600080600080600060e08c8e0312156119645761196361152b565b5b60008c013567ffffffffffffffff81111561198257611981611530565b5b61198e8e828f01611746565b9b509b505060206119a18e828f016117ac565b99505060408c013567ffffffffffffffff8111156119c2576119c1611530565b5b6119ce8e828f016117c1565b985098505060608c013567ffffffffffffffff8111156119f1576119f0611530565b5b6119fd8e828f01611817565b965096505060808c013567ffffffffffffffff811115611a2057611a1f611530565b5b611a2c8e828f0161186d565b945094505060a0611a3f8e828f016118ee565b92505060c0611a508e828f0161192a565b9150509295989b509295989b9093969950565b600081519050919050565b600082825260208201905092915050565b60005b83811015611a9d578082015181840152602081019050611a82565b60008484015250505050565b6000611ab482611a63565b611abe8185611a6e565b9350611ace818560208601611a7f565b611ad781611575565b840191505092915050565b60006020820190508181036000830152611afc8184611aa9565b905092915050565b600060208284031215611b1a57611b1961152b565b5b6000611b2884828501611556565b91505092915050565b600073ffffffffffffffffffffffffffffffffffffffff82169050919050565b6000611b5c82611b31565b9050919050565b611b6c81611b51565b82525050565b6000602082019050611b876000830184611b63565b92915050565b611b9681611535565b82525050565b6000602082019050611bb16000830184611b8d565b92915050565b611bc081611b51565b8114611bcb57600080fd5b50565b600081359050611bdd81611bb7565b92915050565b600060208284031215611bf957611bf861152b565b5b6000611c0784828501611bce565b91505092915050565b7f4e487b7100000000000000000000000000000000000000000000000000000000600052602160045260246000fd5b600067ffffffffffffffff821115611c5a57611c59611586565b5b602082029050602081019050919050565b600067ffffffffffffffff821115611c8657611c85611586565b5b611c8f82611575565b9050602081019050919050565b6000611caf611caa84611c6b565b6115e6565b905082815260208101848484011115611ccb57611cca611570565b5b611cd6848285611632565b509392505050565b600082601f830112611cf357611cf261156b565b5b8135611d03848260208601611c9c565b91505092915050565b6000611d1f611d1a84611c3f565b6115e6565b90508083825260208201905060208402830185811115611d4257611d41611741565b5b835b81811015611d8957803567ffffffffffffffff811115611d6757611d6661156b565b5b808601611d748982611cde565b85526020850194505050602081019050611d44565b5050509392505050565b6000611da0368484611d0c565b905092915050565b600067ffffffffffffffff821115611dc357611dc2611586565b5b602082029050602081019050919050565b6000611de7611de284611da8565b6115e6565b90508083825260208201905060208402830185811115611e0a57611e09611741565b5b835b81811015611e5157803567ffffffffffffffff811115611e2f57611e2e61156b565b5b808601611e3c8982611683565b85526020850194505050602081019050611e0c565b5050509392505050565b6000611e68368484611dd4565b905092915050565b7f4e487b7100000000000000000000000000000000000000000000000000000000600052602260045260246000fd5b60006002820490506001821680611eb757607f821691505b602082108103611eca57611ec9611e70565b5b50919050565b600082825260208201905092915050565b7f4d7573742062652070726f706f736564206f776e657200000000000000000000600082015250565b6000611f17601683611ed0565b9150611f2282611ee1565b602082019050919050565b60006020820190508181036000830152611f4681611f0a565b9050919050565b60008190508160005260206000209050919050565b60006020601f8301049050919050565b600082821b905092915050565b600060088302611faf7fffffffffffffffffffffffffffffffffffffffffffffffffffffffffffffffff82611f72565b611fb98683611f72565b95508019841693508086168417925050509392505050565b6000819050919050565b6000819050919050565b6000612000611ffb611ff684611fd1565b611fdb565b611fd1565b9050919050565b6000819050919050565b61201a83611fe5565b61202e61202682612007565b848454611f7f565b825550505050565b600090565b612043612036565b61204e818484612011565b505050565b5b818110156120725761206760008261203b565b600181019050612054565b5050565b601f8211156120b75761208881611f4d565b61209184611f62565b810160208510156120a0578190505b6120b46120ac85611f62565b830182612053565b50505b505050565b600082821c905092915050565b60006120da600019846008026120bc565b1980831691505092915050565b60006120f383836120c9565b9150826002028217905092915050565b61210c82611a63565b67ffffffffffffffff81111561212557612124611586565b5b61212f8254611e9f565b61213a828285612076565b600060209050601f83116001811461216d576000841561215b578287015190505b61216585826120e7565b8655506121cd565b601f19841661217b86611f4d565b60005b828110156121a35784890151825560018201915060208501945060208101905061217e565b868310156121c057848901516121bc601f8916826120c9565b8355505b6001600288020188555050505b505050505050565b7f4f6e6c792063616c6c61626c65206279206f776e657200000000000000000000600082015250565b600061220b601683611ed0565b9150612216826121d5565b602082019050919050565b6000602082019050818103600083015261223a816121fe565b9050919050565b7f4e487b7100000000000000000000000000000000000000000000000000000000600052603260045260246000fd5b612279816118c3565b82525050565b600061ffff82169050919050565b6122968161227f565b82525050565b6122a581611903565b82525050565b600060a0820190506122c06000830188612270565b81810360208301526122d28187611aa9565b90506122e1604083018661228d565b6122ee606083018561229c565b6122fb6080830184611b8d565b9695505050505050565b6000815190506123148161153f565b92915050565b6000602082840312156123305761232f61152b565b5b600061233e84828501612305565b91505092915050565b7f43616e6e6f74207472616e7366657220746f2073656c66000000000000000000600082015250565b600061237d601783611ed0565b915061238882612347565b602082019050919050565b600060208201905081810360008301526123ac81612370565b9050919050565b6123bc81611fd1565b82525050565b60006020820190506123d760008301846123b3565b92915050565b7f4e487b7100000000000000000000000000000000000000000000000000000000600052601160045260246000fd5b600061241782611fd1565b915061242283611fd1565b925082820190508082111561243a576124396123dd565b5b92915050565b600061244b82611fd1565b915061245683611fd1565b925082820390508181111561246e5761246d6123dd565b5b92915050565b7f4e487b7100000000000000000000000000000000000000000000000000000000600052601260045260246000fd5b60006124ae82611fd1565b91506124b983611fd1565b9250826124c9576124c8612474565b5b828206905092915050565b60006124df82611fd1565b91506124ea83611fd1565b92508282026124f881611fd1565b9150828204841483151761250f5761250e6123dd565b5b5092915050565b60008160011c9050919050565b6000808291508390505b600185111561256d57808604811115612549576125486123dd565b5b60018516156125585780820291505b808102905061256685612516565b945061252d565b94509492505050565b6000826125865760019050612642565b816125945760009050612642565b81600181146125aa57600281146125b4576125e3565b6001915050612642565b60ff8411156125c6576125c56123dd565b5b8360020a9150848211156125dd576125dc6123dd565b5b50612642565b5060208310610133831016604e8410600b84101617156126185782820a905083811115612613576126126123dd565b5b612642565b6126258484846001612523565b9250905081840481111561263c5761263b6123dd565b5b81810290505b9392505050565b600061265482611fd1565b915061265f83611fd1565b925061268c7fffffffffffffffffffffffffffffffffffffffffffffffffffffffffffffffff8484612576565b90509291505056fea264697066735822122093dbc2f5632bb566dac849b2e00d64c6104eee0556f2c6bd248a020bb76b104364736f6c63430008180033",
  "linkReferences": {},
  "deployedLinkReferences": {}
}